S0130000486F6D655F47617264656E2E73726563D8
S1130000D3C00000FFC00000FDC00000FBC0000022
S1130010F9C00000F7C00000F5C00000F3C0000004
S1130020F1C00000EFC00000EDC00000EBC0000014
S1130030E9C00000E7C00000E5C00000E3C0000024
S1130040E1C00000DFC00000DDC00000DBC0000034
S113005030C10000D7C00000D5C00000C4C30000F8
S1130060D1C00000F5C2000029C30000CBC00000CD
S1130070C9C00000C7C00000C5C00000C3C0000064
S1130080C1C00000BFC00000BDC00000BBC0000074
S1130090B9C00000B7C00000B5C00000B3C0000084
S11300A0B1C00000AFC00000ADC00000ABC0000094
S11300B0A9C00000A7C00000A5C00000A3C00000A4
S11300C0A1C000009FC000009DC000009BC00000B4
S11300D099C0000097C0000095C0000093C00000C4
S11300E091C00000010210202008081020401020B8
S11300F040800201020108040201010204081020E8
S113010040808040201008040201800402018040E5
S1130110201008040201080402010102040810204E
S113012040800102040810204080050505050705EC
S113013008080808020202020A0A0808040404045F
S1130140010101010101010103030303030303038B
S1130150040707070C0C0C0C0C0C0C0C020202021A
S113016006060606060606060B0B0B0B0B0B0B0B03
S113017000002200250028002B002E00310034004E
S113018002010000050108010B0100002100240008
S113019027002A002D003000330001010000040173
S11301A007010A019801900311241FBECFEFD1E289
S11301B0DEBFCDBF00E00CBF12E0A0E0B2E0E0E49F
S11301C0FAE000E00BBF02C007900D92A831B1071E
S11301D0D9F722E0A8E1B2E001C01D92A83CB20721
S11301E0E1F710E0C4EDD0E000E005C0219701097B
S11301F0802FFE0102D4C23DD10780E00807B1F789
S1130200BDD21CC4FDCE26E040E855E260E070E0BB
S113021082E292E0BAD161E086E191D361E087E1C4
S11302208ED361E088E18BD361E089E188D361E01A
S11302308AE185D361E08BE182D361E08CE17FD3F5
S113024061E08DE17CD361E08EE179D361E08FE1FF
S113025076D361E084E273D361E086E270D361E037
S113026087E26DD361E088E26AD361E084E067D31A
S113027061E083E064D360E082E061D3F89410929B
S11302808000E1E8F0E010828EEE95E89093210280
S11302908093200290938500809384008081846001
S11302A08083EFE6F0E08081816080837894089514
S11302B008951F920F920FB60F9211242F938F93CC
S11302C09F93AF93BF9380912002909121029093CA
S11302D08500809384008091180290911902A09166
S11302E01A02B0911B02803821E5920721E0A2078F
S11302F0B10549F4109218021092190210921A02D0
S113030010921B020BC00196A11DB11D809318020F
S113031090931902A0931A02B0931B02BF91AF915C
S11303209F918F912F910F900FBE0F901F90189552
S1130330CF92DF92EF92FF92209104023091050256
S11303404091060250910702A0E1BEE05ED36B012A
S11303507C012091000230910102409102025091EF
S11303600302ACE3B0E051D3AB01BC014C0D5D1D05
S11303706E1D7F1D80911C0290911D02A0911E0292
S1130380B0911F02840F951FA61FB71F80931802F8
S113039090931902A0931A02B0931B02FF90EF905E
S11303A0DF90CF900895FC01918D228D892F90E0EC
S11303B0805C9F4F821B91098F7399270895FC01DC
S11303C0918D828D981731F0828DE80FF11D858D06
S11303D090E008958FEF9FEF0895FC01918D828D39
S11303E0981761F0828DDF01A80FB11D5D968C9185
S11303F0928D9F5F9F73928F90E008958FEF9FEF90
S1130400089587E893E0892B39F080E090E0892B08
S113041019F07DD1811125C080E090E0892B41F055
S113042080E090E0892B21F00E94000081111CC023
S113043080E090E0892B41F080E090E0892B21F06E
S11304400E940000811113C080E090E0892BA1F08C
S113045080E090E0892B81F00E94000081110AC0A5
S113046008950E940000D8CF0E940000E1CF0E94AE
S11304700000EACF0C9400000895FC01848DDF0194
S1130480A80FB11DA35ABF4F2C91848D90E0019603
S11304908F739927848FA689B7892C93A089B189F2
S11304A08C9180648C93938D848D981306C00288FC
S11304B0F389E02D80818F7D80830895CF93DF932E
S11304C0EC01888D8823C1F0EA89FB89808185FD50
S11304D005C0A889B9898C9186FD0EC00FB607FCAA
S11304E0F5CF808185FFF2CFA889B9898C9185FFEA
S11304F0EDCFCE01C2DFE8CFDF91CF910895EF9227
S1130500FF920F931F93CF93DF93EC0181E0888FC9
S11305109B8D8C8D981305C0E889F989808185FDB0
S113052023C0F62E0B8D10E00F5F1F4F0F731127A2
S1130530E02E8C8DE8120BC00FB607FCFACFE889C9
S1130540F989808185FFF5CFCE0197DFF2CF8B8DBE
S1130550FE01E80FF11DE35AFF4FF0820B8FEA8989
S1130560FB898081806207C0EE89FF896083E88906
S1130570F98980818064808381E090E0DF91CF916C
S11305801F910F91FF90EF900895CF92DF92EF9219
S1130590FF921F93CF93DF93EC016A017B01122F2B
S11305A0E889F98982E080834115514E610571051E
S11305B0A9F060E079E08DE390E0A7019601FBD11A
S11305C0DA01C9010197A109B109B695A7959795D3
S11305D08795AC01411580E15807A0F0E889F989B5
S11305E0108260E874E88EE190E0A7019601E3D1FF
S11305F0BA01A901415051096109710976956795BC
S113060057954795EC85FD855083EE85FF8540839E
S1130610188EEC89FD891083EA89FB8980818061C9
S11306208083EA89FB89808188608083EA89FB89E9
S1130630808180688083EA89FB8980818F7D8083C3
S1130640DF91CF911F91FF90EF90DF90CF900895AD
S11306501F920F920FB60F9211240BB60F922F9385
S11306608F939F93EF93FF93E0913202F0913302C3
S11306708081E0913802F091390282FD12C09081AC
S113068080913B028F5F8F7320913C02821751F05F
S1130690E0913B02F0E0EE5DFD4F958F80933B02CD
S11306A001C08081FF91EF919F918F912F910F90C5
S11306B00BBE0F900FBE0F901F9018951F920F92B4
S11306C00FB60F9211240BB60F922F933F934F93B3
S11306D05F936F937F938F939F93AF93BF93EF93A6
S11306E0FF9382E292E0C9DEFF91EF91BF91AF9157
S11306F09F918F917F916F915F914F913F912F9136
S11307000F900BBE0F900FBE0F901F90189582E2B2
S113071092E049DE21E0892B09F420E0822F08953C
S1130720E2E2F2E01382128288EE93E0A0E0B0E00D
S113073084839583A683B7838CE092E0918380833E
S113074085EC90E09587848784EC90E09787868792
S113075080EC90E0918B808B81EC90E0938B828B8A
S113076082EC90E0958B848B86EC90E0978B868B63
S1130770118E128E138E148E089508957ED0FDDF8F
S113078042DDC1E0D2E094DD2097E9F33ADEFBCF0D
S1130790CF92DF92EF92FF920F931F93CF93DF9349
S11307A06C017A018B01C0E0D0E0CE15DF0589F041
S11307B0D8016D918D01D601ED91FC910190F081EC
S11307C0E02DC6011995892B11F47E0102C02196F2
S11307D0ECCFC701DF91CF911F910F91FF90EF9064
S11307E0DF90CF9008951F920F920FB60F921124AD
S11307F02F933F938F939F93AF93BF938091C002A6
S11308009091C102A091C202B091C3023091BF0283
S113081023E0230F2D3720F40196A11DB11D05C03F
S113082026E8230F0296A11DB11D2093BF028093D9
S1130830C0029093C102A093C202B093C3028091FC
S1130840C4029091C502A091C602B091C70201965C
S1130850A11DB11D8093C4029093C502A093C6024A
S1130860B093C702BF91AF919F918F913F912F9108
S11308700F900FBE0F901F901895789484B58260E6
S113088084BD84B5816084BD85B5826085BD85B530
S1130890816085BDEEE6F0E0808181608083E1E8DF
S11308A0F0E0108280818260808380818160808317
S11308B0E0E8F0E0808181608083E1EBF0E080811A
S11308C084608083E0EBF0E0808181608083E1E9F3
S11308D0F0E0808182608083808181608083E0E9B0
S11308E0F0E0808181608083E1EAF0E080818260D1
S11308F08083808181608083E0EAF0E08081816090
S11309008083E1E2F1E08081826080838081816084
S11309108083E0E2F1E0808181608083EAE7F0E0B7
S11309208081846080838081826080838081816013
S113093080838081806880831092C1000895CF9362
S1130940DF9390E0FC01EC51FF4F2491FC01E65D44
S1130950FE4F8491882361F190E0880F991FFC0178
S1130960E657FE4FC591D491FC01E059FE4FA59185
S1130970B491611109C09FB7F894888120958223AE
S11309808883EC912E230BC0623061F49FB7F894F6
S11309903881822F809583238883EC912E2B2C938E
S11309A09FBF06C08FB7F894E8812E2B28838FBF92
S11309B0DF91CF910895A1E21A2EAA1BBB1BFD0162
S11309C00DC0AA1FBB1FEE1FFF1FA217B307E4072A
S11309D0F50720F0A21BB30BE40BF50B661F771F82
S11309E0881F991F1A9469F7609570958095909562
S11309F09B01AC01BD01CF010895EE0FFF1F881FBD
S1130A008BBF0790F691E02D199409D0A59F900D06
S1130A10B49F900DA49F800D911D11240895A29F51
S1130A20B001B39FC001A39F700D811D1124911DBE
S1130A30B29F700D811D1124911D0895F894FFCF6C
S1130A402D0000000F000000000000007F02C8031A
S10B0A50D301ED01DF015E0298
S9030000FC
