:1000000015C1000044C1000042C1000040C1000011
:100010003EC100003CC100003AC1000038C10000F0
:1000200036C1000034C1000032C1000030C1000000
:100030002EC100002CC100002AC1000028C1000010
:1000400026C1000024C1000022C1000020C1000020
:1000500094C400001CC100001AC100000C947A0A6C
:1000600016C100000C94F4080C942A0910C1000079
:100070000EC100000CC100000AC1000008C1000050
:1000800006C1000004C1000002C1000000C1000060
:10009000FEC00000FCC00000FAC00000F8C0000074
:1000A000F6C00000F4C00000F2C00000F0C0000084
:1000B000EEC00000ECC00000EAC00000E8C0000094
:1000C000E6C00000E4C00000E2C00000E0C00000A4
:1000D000DEC00000DCC00000DAC00000D8C00000B4
:1000E000D6C00000C30BC60BB50BB90BBF0BFD0B85
:1000F000CA0BCE0BD40BD80BDC0BE20BE60BEA0BD6
:10010000FD0BF00BF40BF80B00000A0B02090C0DB1
:100110000E080703040100000000000000000000BA
:1001200000000000000000000000000000000000CF
:10013000000000001211100000000000000000008C
:1001400000000000000000000000000000000102AC
:1001500010202008081020401020408002010201D9
:100160000804020101020408102040808040201091
:1001700008040201800402018040201008040201EA
:100180000804020101020408102040800102040852
:10019000102040800505050507050808080802022B
:1001A00002020A0A08080404040401010101010111
:1001B00001010303030303030303040707070C0CF4
:1001C0000C0C0C0C0C0C02020202060606060606BB
:1001D00006060B0B0B0B0B0B0B0B00002000230078
:1001E000260029002C002F0032000001000003012E
:1001F0000601090100002200250028002B002E0026
:100200003100340002010000050108010B0100006B
:100210002100240027002A002D00300033000101B6
:100220000000040107010A0116055C0911241FBE24
:10023000CFEFD1E2DEBFCDBF00E00CBF13E0A0E006
:10024000B2E0ECEAF9E100E00BBF02C007900D92CA
:10025000A23AB107D9F724E0A2EAB3E001C01D92A7
:10026000A237B207E1F711E0C6E1D1E000E006C035
:1002700021970109802FFE010E94B30CC431D107E0
:1002800080E00807A9F70E948A090C94D40CB8CE24
:1002900026E040E855E260E070E08CEC93E041D766
:1002A00061E08EE10E94FE0B61E08FE10E94FE0B97
:1002B00061E080E20E94FE0B61E081E20E94FE0BA1
:1002C00061E08EE00E94FE0B61E08FE00E94FE0B79
:1002D00061E080E10E94FE0B61E081E10E94FE0B83
:1002E00061E082E10E94FE0B61E083E10E94FE0B6F
:1002F00061E082E00E94FE0B61E083E00E94FE0B61
:1003000061E084E00E94FE0B61E085E00E94FE0B4C
:1003100061E086E00E94FE0B61E088E00E94FE0B37
:1003200060E087E00E94FE0B60E086E10E94FE0B29
:1003300060E087E10E94FE0B60E088E10E94FE0B16
:1003400060E089E10E94FE0B60E08AE10E94FE0B02
:1003500060E08BE10E94FE0B60E08CE10E94FE0BEE
:1003600060E08DE10E94FE0B61E085E30E94FE0BE0
:1003700061E084E30E94FE0B61E083E30E94FE0BD8
:1003800061E082E30E94FE0B61E08AE00E94FE0BC6
:1003900061E08BE00E94FE0B61E08CE00E94FE0BAE
:1003A00061E08DE00E94FE0BF89410928000E1E87D
:1003B000F0E0108288EB9BE09093CB038093CA031C
:1003C0009093850080938400808184608083EFE631
:1003D000F0E0808181608083789408950E94840B8E
:1003E000BC01990F880B990B1ED523E333E343E03F
:1003F00051E47ED4E5D4CB010895682F82E00C94BB
:100400003A0CCF93C62F8230910541F0833091058D
:1004100049F0019761F483E00E943A0C6C2F84E06C
:100420000E943A0C6C2F85E0CF910C943A0CCF913E
:10043000089581E0E2DF61E081E090E0E2DF61E0E9
:1004400082E090E0DEDF61E085E00C943A0C61E050
:1004500086E00E943A0C64EF71E080E090E00E9438
:10046000E90A60E086E00E943A0C64EF71E080E007
:1004700090E00C94E90A8F929F92AF92BF92CF9234
:10048000DF92EF92FF920197039708F04CC0C09063
:10049000C203D090C303E090C403F090C503C7012A
:1004A000B60120E13EE040E050E00E94910C49019D
:1004B0005A013093A7032093A60320E13EE0289D34
:1004C000C001299D900D389D900D1124092E000C1E
:1004D000AA0BBB0BA7019601281B390B4A0B5B0B20
:1004E000CA01B9012CE330E040E050E00E94910CD9
:1004F0003093A5032093A40360EF71EF689DC001C2
:10050000699D900D789D900D1124C80ED91E64EC44
:100510006203C001639F900D1124C80ED91ED092B2
:10052000A303C092A203FF90EF90DF90CF90BF9003
:10053000AF909F908F9008956EE372E08CEC93E003
:1005400033D76091BE037091BF034AE050E08CEC5A
:1005500093E0CAD78091B2039091B30384309105A0
:1005600019F46EE572E016C08330910519F461E765
:1005700072E010C08230910519F46AE772E00AC097
:100580008130910519F465E872E004C0892B29F4E3
:100590006EE872E08CEC93E007D765EA72E08CECD1
:1005A00093E002D76091BC037091BD034AE050E034
:1005B0008CEC93E099D78091B0039091B103843093
:1005C000910519F46EE572E016C08330910519F4B7
:1005D00061E772E010C08230910519F46AE772E0B9
:1005E0000AC08130910519F465E872E004C0892BD6
:1005F00029F46EE872E08CEC93E0D6D665EC72E0FC
:100600008CEC93E0D1D66091BA037091BB034AE0C1
:1006100050E08CEC93E068D78091AE039091AF03EB
:100620008430910519F46EE572E016C083309105AF
:1006300019F461E772E010C08230910519F46AE79D
:1006400072E00AC08130910519F465E872E004C0D7
:10065000892B29F46EE872E08CEC93E0A5D665EE68
:1006600072E08CEC93E0A0D66091B8037091B9036E
:100670004AE050E08CEC93E037D78091AC03909146
:10068000AD038430910519F46EE572E016C0833035
:10069000910519F461E772E010C08230910519F4F8
:1006A0006AE772E00AC08130910519F465E872E0EA
:1006B00004C0892B29F46EE872E08CEC93E074D6C8
:1006C00065E073E08CEC93E06FD66091B6037091B7
:1006D000B7034AE050E08CEC93E006D78091AA0380
:1006E0009091AB038430910519F46EE572E016C069
:1006F0008330910519F461E772E010C082309105F2
:1007000019F46AE772E00AC08130910519F465E8CE
:1007100072E004C0892B29F46EE872E08CEC93E05F
:1007200043D665E273E08CEC93E03ED66091B4036F
:100730007091B5034AE050E08CEC93E0D5D68091FF
:10074000A8039091A9038430910519F46EE572E035
:1007500016C08330910519F461E772E010C0823051
:10076000910519F46AE772E00AC08130910519F425
:1007700065E872E004C0892B29F46EE872E08CEC25
:1007800093E012D66CE372E08CEC93E00DC683E04C
:1007900090E071DE65E473E08CEC93E005D6609147
:1007A000A6037091A7034AE050E08CEC93E09CD63E
:1007B00065E573E08CEC93E0F7D56091A40370914C
:1007C000A5034AE050E08CEC93E08ED665E573E03B
:1007D0008CEC93E0E9D56091A2037091A3034AE009
:1007E00050E08CEC93E080D66CE372E08CEC93E00C
:1007F000DBC58DE10E94680C892B89F461E08DE0F6
:100800000E943A0C8091C2039091C303A091C4034B
:10081000B091C503805F914FAF4FBF4F66C08CE171
:100820000E94680C892B89F461E08CE00E943A0CEC
:100830008091C2039091C303A091C403B091C503FA
:1008400080519E40A109B10950C08BE10E94680C03
:10085000892B81F461E08BE00E943A0C8091C20305
:100860009091C303A091C403B091C503CC96A11D80
:10087000B11D3BC08AE10E94680C892B79F461E0CC
:100880008AE0F8D78091C2039091C303A091C4037A
:10089000B091C503CC97A109B10927C087E10E9497
:1008A000680C892B79F461E082E3E4D78091C2037C
:1008B0009091C303A091C403B091C5030196A11DFB
:1008C000B11D13C086E10E94680C892BB9F461E068
:1008D00083E3D0D78091C2039091C303A091C40356
:1008E000B091C5030197A109B1098093C203909308
:1008F000C303A093C403B093C503089588E1E8D768
:10090000892B41F482E0E4D721E0892B09F020E033
:10091000822F73CD60E08DE0ADD760E08CE0AAD788
:1009200060E08BE0A7D760E08AE0A4D760E082E3D4
:10093000A1D760E083E39ED760E084E39BC7833365
:10094000910574F48F31910574F48A31910574F432
:100950008531910574F40B9774F020E030E00BC002
:1009600024E030E008C023E030E005C022E030E0C1
:1009700002C021E030E0C90108951F920F920FB626
:100980000F9211240BB60F922F933F934F935F93C7
:100990006F937F938F939F93AF93BF93EF93FF9347
:1009A0008091CA039091CB0390938500809384003B
:1009B00085E38ED761E0892B09F060E085E35AD7A3
:1009C0008091C2039091C303A091C403B091C50369
:1009D000813821E5920721E0A207B10548F0109285
:1009E000C2031092C3031092C4031092C5030BC03C
:1009F0000196A11DB11D8093C2039093C303A093E0
:100A0000C403B093C503FF91EF91BF91AF919F9144
:100A10008F917F916F915F914F913F912F910F90A7
:100A20000BBE0F900FBE0F901F901895CF92DF92C4
:100A3000EF92FF9220910E0230910F02409110022E
:100A400050911102A0E1BEE096D76B017C0120918C
:100A50000A0230910B0240910C0250910D02ACE35E
:100A6000B0E089D7AB01BC014C0D5D1D6E1D7F1D33
:100A70008091C6039091C703A091C803B091C903A8
:100A8000840F951FA61FB71F8093C2039093C303C3
:100A9000A093C403B093C503FF90EF90DF90CF9075
:100AA00008956BE18CEC93E0D5D261E773E08CECB8
:100AB00093E07AD46BE18CEC93E0CCD265E773E001
:100AC0008CEC93E071C4B5DC94DE8091C00390910E
:100AD000C10384DC9093BF038093BE03809108021E
:100AE000909109027BDC9093BD038093BC038091BD
:100AF00006029091070272DC9093BB038093BA03C5
:100B0000809104029091050269DC9093B90380936F
:100B1000B803809102029091030260DC9093B703C6
:100B20008093B603809100029091010257DCEC01A2
:100B30009093B5038093B4038091BE039091BF035B
:100B4000FEDE9093B3038093B2038091BC03909137
:100B5000BD03F5DE9093B1038093B0038091BA0397
:100B60009091BB03ECDE9093AF038093AE03809132
:100B7000B8039091B903E3DE9093AD038093AC0387
:100B80008091B6039091B703DADE9093AB03809324
:100B9000AA03CE01D4DE9093A9038093A80381DF3A
:100BA0004091C2035091C3036091C4037091C50387
:100BB0002AE030E08CEC93E046D4E9DDBDDC60E077
:100BC00082E358D660E083E355D68091B0039091DC
:100BD000B1030397C1F480E010DC60ED77E080E0C2
:100BE00090E0F7D481E009DC5CDFD1DD68E773E0F9
:100BF0008CEC93E0D9D34AE050E060E879EA8CECE1
:100C000093E072D4F1CF81E0F8DB8091B003909152
:100C1000B103049709F058CF1ADC8091C00390917A
:100C2000C103DCDB9093BF038093BE038091080275
:100C300090910902D3DB9093BD038093BC03809114
:100C4000060290910702CADB9093BB038093BA031C
:100C50008091040290910502C1DB9093B9038093C7
:100C6000B8038091020290910302B8DB9093B7031E
:100C70008093B6038091000290910102AFDBEC01FA
:100C80009093B5038093B4038091BE039091BF030A
:100C900056DE9093B3038093B2038091BC0390918E
:100CA000BD034DDE9093B1038093B0038091BA03EE
:100CB0009091BB0344DE9093AF038093AE03809189
:100CC000B8039091B9033BDE9093AD038093AC03DE
:100CD0008091B6039091B70332DE9093AB0380937B
:100CE000AA03CE012CDE9093A9038093A8038DCF95
:100CF0000CD0EBC0E3D040F0DAD030F021F45F3F0D
:100D000019F0CCC0511115C1CFC0F0D098F3992380
:100D1000C9F35523B1F3951B550BBB27AA276217BF
:100D20007307840738F09F5F5F4F220F331F441F04
:100D3000AA1FA9F333D00E2E3AF0E0E830D091503C
:100D40005040E695001CCAF729D0FE2F27D0660F29
:100D5000771F881FBB1F261737074807AB07B0E868
:100D600009F0BB0B802DBF01FF2793585F4F2AF07E
:100D70009E3F510568F092C0DCC05F3FECF3983EA7
:100D8000DCF3869577956795B795F7959F5FC9F7DB
:100D9000880F911D9695879597F90895E1E0660F64
:100DA000771F881FBB1F621773078407BA0720F0DD
:100DB000621B730B840BBA0BEE1F88F7E095089546
:100DC00004D06894B111B5C0089598D088F09F57A9
:100DD00090F0B92F9927B751A0F0D1F0660F771F87
:100DE000881F991F1AF0BA95C9F712C0B13081F067
:100DF0009FD0B1E008959CC0672F782F8827B85FF7
:100E000039F0B93FCCF3869577956795B395D9F7C7
:100E10003EF490958095709561957F4F8F4F9F4FD1
:100E20000895E89409C097FB3EF4909580957095DD
:100E300061957F4F8F4F9F4F9923A9F0F92F96E926
:100E4000BB279395F695879577956795B795F1119B
:100E5000F8CFFAF4BB0F11F460FF1BC06F5F7F4F38
:100E60008F4F9F4F16C0882311F096E911C077234A
:100E700021F09EE8872F762F05C0662371F096E853
:100E8000862F70E060E02AF09A95660F771F881F22
:100E9000DAF7880F9695879597F9089597F99F67E0
:100EA00080E870E060E008959FEF80EC08950024F2
:100EB0000A941616170618060906089500240A94BF
:100EC00012161306140605060895092E0394000C45
:100ED00011F4882352F0BB0F40F4BF2B11F460FFD4
:100EE00004C06F5F7F4F8F4F9F4F089557FD9058FD
:100EF000440F551F59F05F3F71F04795880F97FBDE
:100F0000991F61F09F3F79F0879508951216130697
:100F10001406551FF2CF4695F1DF08C016161706C6
:100F20001806991FF1CF86957105610508940895FB
:100F3000E894BB2766277727CB0197F90895FC0132
:100F4000918D228D892F90E0805C9F4F821B9109AB
:100F50008F7399270895FC01918D828D981731F038
:100F6000828DE80FF11D858D90E008958FEF9FEF42
:100F70000895FC01918D828D981761F0828DDF01BB
:100F8000A80FB11D5D968C91928D9F5F9F73928F7C
:100F900090E008958FEF9FEF089583E599E0892B06
:100FA00039F080E090E0892B19F07DD1811125C0C6
:100FB00080E090E0892B41F080E090E0892B21F0E7
:100FC0000E94000081111CC080E090E0892B41F05C
:100FD00080E090E0892B21F00E940000811113C075
:100FE00080E090E0892BA1F080E090E0892B81F0F7
:100FF0000E94000081110AC008950E940000D8CF0D
:101000000E940000E1CF0E940000EACF0C94000093
:101010000895FC01848DDF01A80FB11DA35ABF4FB5
:101020002C91848D90E001968F739927848FA689E7
:10103000B7892C93A089B1898C9180648C93938D0E
:10104000848D981306C00288F389E02D80818F7DFE
:1010500080830895EF92FF920F931F93CF93DF93B6
:10106000EC0181E0888F9B8D8C8D981305C0E889F9
:10107000F989808185FD23C0F62E0B8D10E00F5F6E
:101080001F4F0F731127E02E8C8DE8120BC00FB687
:1010900007FCFACFE889F989808185FFF5CFCE0179
:1010A000B8DFF2CF8B8DFE01E80FF11DE35AFF4F41
:1010B000F0820B8FEA89FB898081806207C0EE890C
:1010C000FF896083E889F98980818064808381E079
:1010D00090E0DF91CF911F910F91FF90EF900895D5
:1010E000CF93DF93EC01888D8823C1F0EA89FB89D7
:1010F000808185FD05C0A889B9898C9186FD0EC0C7
:101100000FB607FCF5CF808185FFF2CFA889B9899A
:101110008C9185FFEDCFCE017CDFE8CFDF91CF91C1
:101120000895CF92DF92EF92FF921F93CF93DF93B8
:10113000EC016A017B01122FE889F98982E0808342
:101140004115514E61057105A9F060E079E08DE32C
:1011500090E0A7019601E5D3DA01C9010197A10941
:10116000B109B695A795979587959C01211580E1C2
:101170003807A0F0E889F989108260E874E88EE108
:1011800090E0A7019601CDD3DA01C9010197A10929
:10119000B109B695A795979587959C01EC85FD8536
:1011A0003083EE85FF852083188EEC89FD891083BE
:1011B000EA89FB89808180618083EA89FB8980815B
:1011C00088608083EA89FB89808180688083EA89DE
:1011D000FB8980818F7D8083DF91CF911F91FF906C
:1011E000EF90DF90CF9008951F920F920FB60F925D
:1011F00011240BB60F922F938F939F93EF93FF932E
:10120000E091DC03F091DD038081E091E203F09155
:10121000E30382FD12C090818091E5038F5F8F739D
:101220002091E603821751F0E091E503F0E0E453EA
:10123000FC4F958F8093E50301C08081FF91EF9172
:101240009F918F912F910F900BBE0F900FBE0F901B
:101250001F9018951F920F920FB60F9211240BB684
:101260000F922F933F934F935F936F937F938F933F
:101270009F93AF93BF93EF93FF938CEC93E0C9DE02
:10128000FF91EF91BF91AF919F918F917F916F915E
:101290005F914F913F912F910F900BBE0F900FBE1A
:1012A0000F901F9018958CEC93E049DE21E0892B7C
:1012B00009F420E0822F0895ECECF3E0138212820F
:1012C00088EE93E0A0E0B0E084839583A683B783A3
:1012D00085E993E09183808385EC90E0958784870E
:1012E00084EC90E09787868780EC90E0918B808BF0
:1012F00081EC90E0938B828B82EC90E0958B848BD9
:1013000086EC90E0978B868B118E128E138E148E46
:101310000895089597D1FDDF0E944801CDECD7E0F4
:10132000D2DB2097E9F339DEFBCFCF92DF92EF9249
:10133000FF920F931F93CF93DF936C017A018B0180
:10134000C0E0D0E0CE15DF0581F0D8016D918D01B0
:10135000D601ED91FC910190F081E02DC601199527
:10136000892B11F02196EECF7E01C701DF91CF913D
:101370001F910F91FF90EF90DF90CF90089561152E
:10138000710579F0FB0101900020E9F73197AF0179
:10139000461B570BDC01ED91FC910280F381E02D9F
:1013A000199480E090E00895EACFDC01ED91FC9182
:1013B0000190F081E02D19948F929F92AF92BF928D
:1013C000EF92FF920F931F93CF93DF93CDB7DEB7CA
:1013D000A1970FB6F894DEBF0FBECDBF7C01FA0116
:1013E000CB0119A2223008F42AE08E010F5D1F4FB5
:1013F000822E912CA12CB12CBF01A501940191D278
:10140000F901CA01015011096A3010F4605D01C090
:10141000695CD8016C93232B242B252B69F7B80129
:10142000C701ADDFA1960FB6F894DEBF0FBECDBFEA
:10143000DF91CF911F910F91FF90EF90BF90AF90F0
:101440009F908F9008952115310541F4DC01ED91B5
:10145000FC910190F081E02D642F1994ADCFCF92D3
:10146000DF92EF92FF920F931F93CF93DF9321159B
:10147000310581F4DC01ED91FC910190F081E02DCA
:10148000642FDF91CF911F910F91FF90EF90DF902C
:10149000CF9019942A303105F1F477FF1BC06A010F
:1014A0007B01EC016DE281DF8C0144275527BA01F5
:1014B0004C195D096E097F092AE0CE017DDF800F9E
:1014C000911FDF91CF911F910F91FF90EF90DF90CF
:1014D000CF9008952AE0DF91CF911F910F91FF9057
:1014E000EF90DF90CF9068CF9A01AB01770F660B3A
:1014F000770BB5CF1F920F920FB60F9211242F9337
:101500003F938F939F93AF93BF9380916A04909181
:101510006B04A0916C04B0916D043091690423E0D8
:10152000230F2D3720F40196A11DB11D05C026E81B
:10153000230F0296A11DB11D2093690480936A04B4
:1015400090936B04A0936C04B0936D0480916E042F
:1015500090916F04A0917004B09171040196A11D47
:10156000B11D80936E0490936F04A0937004B093A8
:101570007104BF91AF919F918F913F912F910F90E7
:101580000FBE0F901F9018953FB7F89480916E048E
:1015900090916F04A0917004B091710426B5A89B3E
:1015A00005C02F3F19F00196A11DB11D3FBFBA2FF5
:1015B000A92F982F8827820F911DA11DB11DBC0155
:1015C000CD0142E0660F771F881F991F4A95D1F71A
:1015D00008958F929F92AF92BF92CF92DF92EF9237
:1015E000FF926B017C01D0DF4B015C01C114D1047F
:1015F000E104F104F1F094D1C7DFDC01CB018819DB
:101600009909AA09BB09883E9340A105B10570F369
:1016100021E0C21AD108E108F10888EE880E83E0C3
:10162000981EA11CB11CC114D104E104F10421F7DE
:10163000DDCFFF90EF90DF90CF90BF90AF909F9065
:101640008F900895789484B5826084BD84B581605C
:1016500084BD85B5826085BD85B5816085BDEEE6BA
:10166000F0E0808181608083E1E8F0E01082808199
:1016700082608083808181608083E0E8F0E0808107
:1016800081608083E1EBF0E0808184608083E0EB27
:10169000F0E0808181608083E1E9F0E08081826018
:1016A0008083808181608083E0E9F0E080818160D7
:1016B0008083E1EAF0E080818260808380818160C4
:1016C0008083E0EAF0E0808181608083E1E2F1E004
:1016D000808182608083808181608083E0E2F1E0AC
:1016E000808181608083EAE7F0E08081846080838C
:1016F0008081826080838081816080838081806836
:1017000080831092C1000895863308F0865390912B
:101710007B00282F2870977F922B90937B0020913D
:10172000120290E4299F900111248770822B8093EC
:101730007C0080917A00806480937A0080917A00A6
:1017400086FDFCCF809178002091790090E0922B6B
:10175000089590E0FC013197E231F10508F04DC0A9
:101760008827EE58FF4F8F4FFEC0809180008F7703
:1017700003C0809180008F7D8093800008958091C8
:101780008000877FF9CF84B58F7702C084B58F7DC5
:1017900084BD08958091B0008F7703C08091B00020
:1017A0008F7D8093B0000895809190008F7707C05F
:1017B000809190008F7D03C080919000877F8093FF
:1017C000900008958091A0008F7707C08091A000BD
:1017D0008F7D03C08091A000877F8093A000089533
:1017E000809120018F7707C0809120018F7D03C0F9
:1017F00080912001877F809320010895CF93DF930C
:1018000090E0FC01E25BFE4F2491FC01EC56FE4FA0
:101810008491882361F190E0880F991FFC01E25FB9
:10182000FD4FC591D491FC01EC50FE4FA591B491B0
:10183000611109C09FB7F89488812095822388831D
:10184000EC912E230BC0623061F49FB7F89488812D
:10185000322F309583238883EC912E2B2C939FBFBE
:1018600006C08FB7F894E8812E2B28838FBFDF91B5
:10187000CF9108951F93CF93DF93282F30E0F90184
:10188000E85FFE4F8491F901E25BFE4FD491F901CC
:10189000EC56FE4FC491CC23B9F0162F811159DFBD
:1018A000EC2FF0E0EE0FFF1FEC50FE4FA591B4912E
:1018B0009FB7F894111104C08C91D095D82302C021
:1018C000EC91DE2BDC939FBFDF91CF911F910895A8
:1018D000CF93DF93282F30E0F901E85FFE4F84912A
:1018E000F901E25BFE4FD491F901EC56FE4FC49131
:1018F000CC2389F081112DDFEC2FF0E0EE0FFF1FDC
:10190000E652FE4FA591B491EC91ED2381E090E079
:1019100021F480E002C080E090E0DF91CF91089553
:101920000895A1E21A2EAA1BBB1BFD010DC0AA1F20
:10193000BB1FEE1FFF1FA217B307E407F50720F038
:10194000A21BB30BE40BF50B661F771F881F991FB3
:101950001A9469F760957095809590959B01AC01FC
:10196000BD01CF010895EE0FFF1F881F8BBF0790A9
:10197000F691E02D199409D0A59F900DB49F900D7C
:10198000A49F800D911D11240895A29FB001B39FC3
:10199000C001A39F700D811D1124911DB29F700D78
:0C19A000811D1124911D0895F894FFCFC3
:1019AC00050004000300020001000B0000001300FE
:1019BC000000010A2056616E642074696C626167D4
:1019CC00653A2000636D20656C6C65722000707246
:1019DC006F63656E74206272756774200A000A204A
:1019EC0053656E736F722061666C6165736E696EA0
:1019FC006720666F7220736F696C313A2000203D4E
:101A0C0020554C54524120546F65522121212120E4
:101A1C0000203D20546F65522000203D204E6F72F7
:101A2C006D616C2000203D20566161642000203DDA
:101A3C00204F76657273766F656D6D656C7365217D
:101A4C0021212120000A2053656E736F722061667C
:101A5C006C6165736E696E6720666F7220736F6957
:101A6C006C323A20000A2053656E736F72206166E7
:101A7C006C6165736E696E6720666F7220736F6937
:101A8C006C333A20000A2053656E736F72206166C6
:101A9C006C6165736E696E6720666F7220736F6917
:101AAC006C343A20000A2053656E736F72206166A5
:101ABC006C6165736E696E6720666F7220736F69F7
:101ACC006C353A20000A2053656E736F7220616684
:101ADC006C6165736E696E6720666F7220736F69D7
:101AEC006C363A20000A204B6C6F6B6B656E206570
:101AFC00723A2009003A000A2052756D2074656D07
:101B0C006570657261747572656E2065723A200934
:101B1C00005B324A005B48005461656C6C65722056
:101B2C0074696C203234303030302075642061663A
:101B3C0000000000002A0895099F07B907AB077041
:021B4C0008008F
:00000001FF
