:4000000000800020110000004D0C00004D0C000008B5044B1A6803F53F5302331A6000F01DFE00BFFA46004010B5054C237833B9044B13B10448AFF300800123237010BDAA
:400040004881FF1F00000000E00F0000084B10B51BB108490848AFF300800848036803B910BD074B002BFBD0BDE81040184700BF000000004C81FF1FE00F0000C880FF1F24
:400080000000000010B500F0B1FE044600F0B4FE612C08D1554800F0C5FE0120544B186000F0FAFE10BD642C09D1524800F0BAFE02224F4B1A60012000F0EEFE10BD732C00
:4000C00008D14D4800F0AEFE0020494B186000F0E3FE10BD712C06D1484800F0A3FE0222434B5A6010BD652C06D1454800F09AFE01223F4B5A6010BD772C06D1414800F0BA
:4001000091FE03223A4B5A6010BD7A2C06D13E4800F088FE0122364B9A6010BD312C06D13A4800F07FFE1222394B1A6010BD322C06D1384800F076FE1022354B1A6010BDE7
:40014000332C06D1344800F06DFE0E22304B1A6010BD342C06D1314800F064FE0C222C4B1A6010BD352C06D12D4800F05BFE0A22274B1A6010BD362C06D12A4800F052FECC
:400180000822234B1A6010BD372C06D1264800F049FE06221E4B1A6010BD382C06D1234800F040FE04221A4B1A6010BD392C06D11F4800F037FE0222154B1A6010BD302C14
:4001C00006D11C4800F02EFE0122114B1A6010BD194800F027FE194800F024FE184800F021FE184800F01EFE10BD00BFE40F00006481FF1FF80F00000C1000002010000049
:400200003C1000005810000074100000A4100000CC80FF1FC0100000E0100000FC1000001C1100003811000054110000701100008C110000A8110000C811000004120000FB
:40024000381200006412000008B562B60A4800F015FE00F0A1FD00F0BBFD084800F0E2FD002000F019FE00F00DF900F0F7FA00F007F800F009FAFAE7850000009412000053
:4002800010B50024E0E0002000F042FD002000F04BFD002000F054FD012000F05DFD002000F01EFE002000F027FE002000F030FE012000F039FE40F2DC5000F007FE0120C7
:4002C00000F026FD002000F02FFD002000F038FD012000F041FD012000F002FE002000F00BFE002000F014FE012000F01DFE40F2DC5000F0EBFD012000F00AFD002000F045
:4003000013FD002000F01CFD002000F025FD012000F0E6FD002000F0EFFD002000F0F8FD002000F001FE40F2DC5000F0CFFD012000F0EEFC012000F0F7FC002000F000FD28
:40034000002000F009FD012000F0CAFD012000F0D3FD002000F0DCFD002000F0E5FD40F2DC5000F0B3FD002000F0D2FC012000F0DBFC002000F0E4FC002000F0EDFC002006
:4003800000F0AEFD012000F0B7FD002000F0C0FD002000F0C9FD40F2DC5000F097FD002000F0B6FC012000F0BFFC012000F0C8FC002000F0D1FC002000F092FD012000F068
:4003C0009BFD012000F0A4FD002000F0ADFD40F2DC5000F07BFD002000F09AFC002000F0A3FC012000F0ACFC002000F0B5FC002000F076FD002000F07FFD012000F088FDBF
:40040000002000F091FD40F2DC5000F05FFD002000F07EFC002000F087FC012000F090FC012000F099FC002000F05AFD002000F063FD012000F06CFD012000F075FD40F20E
:40044000DC5000F043FD0134B4F52A7FFFF61BAF002000F05DFC002000F066FC002000F06FFC002000F078FC002000F039FD002000F042FD002000F04BFD002000F054FDB2
:4004800010BD00BF10B50024E0E0002000F040FC002000F049FC002000F052FC012000F05BFC002000F01CFD002000F025FD002000F02EFD012000F037FD40F2DC5000F077
:4004C00005FD002000F024FC002000F02DFC012000F036FC012000F03FFC002000F000FD002000F009FD012000F012FD012000F01BFD40F2DC5000F0E9FC002000F008FC4F
:40050000002000F011FC012000F01AFC002000F023FC002000F0E4FC002000F0EDFC012000F0F6FC002000F0FFFC40F2DC5000F0CDFC002000F0ECFB012000F0F5FB012021
:4005400000F0FEFB002000F007FC002000F0C8FC012000F0D1FC012000F0DAFC002000F0E3FC40F2DC5000F0B1FC002000F0D0FB012000F0D9FB002000F0E2FB002000F03F
:40058000EBFB002000F0ACFC012000F0B5FC002000F0BEFC002000F0C7FC40F2DC5000F095FC012000F0B4FB012000F0BDFB002000F0C6FB002000F0CFFB012000F090FC8E
:4005C000012000F099FC002000F0A2FC002000F0ABFC40F2DC5000F079FC012000F098FB002000F0A1FB002000F0AAFB002000F0B3FB012000F074FC002000F07DFC002040
:4006000000F086FC002000F08FFC40F2DC5000F05DFC012000F07CFB002000F085FB002000F08EFB012000F097FB012000F058FC002000F061FC002000F06AFC012000F059
:4006400073FC40F2DC5000F041FC0134B4F52A7FFFF61BAF002000F05BFB002000F064FB002000F06DFB002000F076FB002000F037FC002000F040FC002000F049FC002068
:4006800000F052FC10BD00BF10B50024E0E0002000F03EFB002000F047FB002000F050FB012000F059FB002000F01AFC002000F023FC002000F02CFC012000F035FC40F26B
:4006C000DC5000F003FC012000F022FB002000F02BFB002000F034FB012000F03DFB002000F0FEFB002000F007FC012000F010FC012000F019FC40F2DC5000F0E7FB012043
:4007000000F006FB002000F00FFB002000F018FB002000F021FB002000F0E2FB002000F0EBFB012000F0F4FB002000F0FDFB40F2DC5000F0CBFB012000F0EAFA012000F05A
:40074000F3FA002000F0FCFA002000F005FB002000F0C6FB012000F0CFFB012000F0D8FB002000F0E1FB40F2DC5000F0AFFB002000F0CEFA012000F0D7FA002000F0E0FA5E
:40078000002000F0E9FA002000F0AAFB012000F0B3FB002000F0BCFB002000F0C5FB40F2DC5000F093FB002000F0B2FA012000F0BBFA012000F0C4FA002000F0CDFA012016
:4007C00000F08EFB012000F097FB002000F0A0FB002000F0A9FB40F2DC5000F077FB002000F096FA002000F09FFA012000F0A8FA002000F0B1FA012000F072FB002000F079
:400800007BFB002000F084FB002000F08DFB40F2DC5000F05BFB002000F07AFA002000F083FA012000F08CFA012000F095FA012000F056FB002000F05FFB002000F068FBF0
:40084000012000F071FB40F2DC5000F03FFB0134B4F54E7FFFF61BAF10BD00BF10B50024E0E0002000F054FA002000F05DFA002000F066FA012000F06FFA002000F030FBEA
:40088000002000F039FB002000F042FB012000F04BFB40F2DC5000F019FB002000F038FA002000F041FA012000F04AFA012000F053FA002000F014FB002000F01DFB012046
:4008C00000F026FB012000F02FFB40F2DC5000F0FDFA002000F01CFA002000F025FA012000F02EFA002000F037FA002000F0F8FA002000F001FB012000F00AFB002000F064
:4009000013FB40F2DC5000F0E1FA002000F000FA012000F009FA012000F012FA002000F01BFA002000F0DCFA012000F0E5FA012000F0EEFA002000F0F7FA40F2DC5000F002
:40094000C5FA002000F0E4F9012000F0EDF9002000F0F6F9002000F0FFF9002000F0C0FA012000F0C9FA002000F0D2FA002000F0DBFA40F2DC5000F0A9FA012000F0C8F9AB
:40098000012000F0D1F9002000F0DAF9002000F0E3F9012000F0A4FA012000F0ADFA002000F0B6FA002000F0BFFA40F2DC5000F08DFA012000F0ACF9002000F0B5F9002034
:4009C00000F0BEF9002000F0C7F9012000F088FA002000F091FA002000F09AFA002000F0A3FA40F2DC5000F071FA012000F090F9002000F099F9002000F0A2F9012000F050
:400A0000ABF9012000F06CFA002000F075FA002000F07EFA012000F087FA40F2DC5000F055FA0134B4F55C7FFFF61BAF10BD00BFFEE700BFF0B40022174611E050F82760DA
:400A4000F3B226F0FF0608E001EB420511F812406D78A5550132013BDBB2002BF4D10137112FEBD9F0BC7047064B1B78DBB203F00701054A11701B09013213704422034B0C
:400A80001A707047CF0100496E5800407658004008B50A46002100F09AFA08BD38B54FF49C72244B1A80182202331A70022203F27E231A7008224FF040231A70032103F55B
:400AC000007319701C4B1B78DBB21C490B701C4B1A8041F25122023B1A80002419250CE0184B1B7803F0010343EA440404F003044FF4F07000F024FA013D0DB1032CEFD1CE
:400B000015B90320FFF794FF0F4B4FF480721A8007221A7000220D490A704820023108701A700222033B1A70094A137843F00103137038BD8040004008010049A1460040DE
:400B400022420040254200400440004006400040A243004008B500F02FFA08BD38B572B62B4A137843F00403137000240CE0294D630019194A0011462A440846918828587D
:400B8000FFF786FF0134E4B2072CF0D922494FF09040FFF74FFF214A137843F0020313701032137843F0020313701D4C237843F040032370A2F58632513A137843F0100344
:400BC00013700A2217491848FFF7C4FF082217491748FFF7BFFF0A2216491748FFF7BAFF164A137843F008031370154D61232B70FFF754FF81232B700122124B1A70FFF7E2
:400C000033FF0E2221461048FFF7A4FF38BD00BFE8460040AC1200004800004803500140A0430040A8030048C0510040B403004812510040BC030048205100402243004090
:400C40000048004004000840B043004008B500F087F903680C2B00D1FEE7FEE708B5104E104D16E029686B68AC68002204E051F8040B43F8040B0432A242F8D1E868002220
:400C800003E0002143F8041B04328242F9D11035013E002EE6D100F069F9FFF7D5FAFEE7010000000413000008B5104A104B1A60104A136843F40073136000230AE0032B7C
:400CC00003D80D4A52F8231000E00C490C4A42F8231001332F2BF2D90A4B1A780A4B1A70074A0A4B1A60FFF739FF08BD0004FA050CED00E014ED00E0000000004D0C000005
:400D00000080FF1FBC760040C080FF1F08ED00E0044A137803F0EF03000100F0100018431070704720510040044A137803F0DF03400100F02000184310707047205100402C
:400D4000044A137803F0BF03800100F0400018431070704720510040044A137803F07F03C001C0B218431070704700BF205100407222084B1A702022033B1A700622A3F236
:400D80005F131A70472210331A7000224F331A70704700BF8B65004010B500F0D9F804460A4A137843F020031370033A137843F010031370A2F58072137843F01003137037
:400DC00000F076F8204600F0C7F810BD9B65004008B5054B1B7823B9FFF7CAFF0122024B1A70FFF7D9FF08BD7281FF1F014B1878704700BF48650040024B1B780BB1024B72
:400E0000187070477281FF1F48640040034B1B7813F0040FFAD1024B18707047686400404864004038B5074B1B782BB938BDFFF7EDFF0134A4B201E005460024285D00281B
:400E4000F5D138BD7281FF1F014B1B681864704708ED00E04001C0B2014B1870704700BF00E400E00122014B1A60704700E100E00122014B1A60704780E100E010B50446BD
:400E8000FFF7F6FF2046FFF7DFFF0720FFF7E2FFFFF7E8FF10BD00BF044A137803F0FD03400000F0020018431070704720510040054A137843F0010313701032137843F0D1
:400EC00001031370704700BFA243004008B5034B1B7A00FB03F000F033F808BDD080FF1F044A137803F0BF03800100F0400018431070704710510040044A137803F0FE03B5
:400F000000F0010018431070704700BF20510040044A137803F0F703C00000F0080018431070704720510040044A137803F07F03C001C0B218431070704700BF105100408A
:400F40000230800803D000BF01380046FCD17047EFF3108072B6704780F31088704700BF014B1868704700BF4081FF1F0E4B70B51E460E4C0025E41AA410A54204D056F813
:400F8000253098470135F8E700F0AAF9084B094C1E46E41AA4100025A54204D056F8253098470135F8E770BDEC120000EC120000EC120000F412000010B5431E0A449142AC
:400FC00004D011F8014B03F8014FF8E710BD03460244934202D003F8011BFAE770470000000000000A4D6F746F72204672656D6164200D200A0000000A4D6F746F7220547C
:40100000696C62616765200D200A00000A4D6F746F722053746F70706574200D200A00000A4D6F746F72206D6F64653A2048616C66206D6F6465200D200A00000A4D6F7469
:401040006F72206D6F64653A2046756C6C206D6F6465200D200A00000A4D6F746F72206D6F64653A2077617665206D6F6465200D200A00000A546167657220656E20656ED5
:401080006B656C74206F6D67616E672C20766564206E61657374652073746172742E200D200A00000A4D6F746F72206861737469676865643A20536E65676C200D200A0053
:4010C0000A4D6F746F72206861737469676865643A20536B696C6470616465200D200A000A4D6F746F72206861737469676865643A204D7573200D200A0000000A4D6F74B6
:401100006F72206861737469676865643A20456C657068616E74200D200A00000A4D6F746F72206861737469676865643A2048617265200D200A00000A4D6F746F7220685B
:4011400061737469676865643A2048756E64200D200A00000A4D6F746F72206861737469676865643A20486A6F7274200D200A000A4D6F746F722068617374696768656456
:401180003A2048657374200D200A00000A4D6F746F72206861737469676865643A205469676572200D200A000A4D6F746F72206861737469676865643A204C656F706172A9
:4011C00064200D200A0000000A200A200A48454C50313A204475206B616E206272756720312074696C2039206F67203020666F722068617374696768656465722E200D205C
:401200000A00000048454C50323A2051206F672045206F67205720666F722068616C662C2066756C6C206F672077617665206D6F64652E200D200A0048454C50333A207A72
:4012400020666F72206174207461676520656E20656E6B656C206F6D67616E672E200D200A00000048454C50343A2041206F67204420657220666F72206672656D616420B2
:401280006F672062616B676561722E200D200A200A200A004170706C69636174696F6E20737461727465640D0A000000005100401000305100404000F051004010000000BD
:4012C0000140001000140140000800400140000A004C0140000200500140200043000000F8B500BFF8BC08BC9E4670474D000000A90C0000F8B500BFF8BC08BC9E46704732
:401300002900000018130000C880FF1F80000000300000000000000000000000010000000000E02EC05D00001800000000366E01000000000000000000000000000000005A
:4013400000000000000000000000000000000000DC12000000000000000000000000000000000000000000000000000000000000000000000000000000000000000000007F
:4013800000000000000000000000000000000000E080FF1F0000000000000000000000000000000000000000000000000000000000000000000000000000000000000000AF
:4013C00000000000000000000000000000000000000000000000000000000000000000000000000000000000000000000000000000000000000000000000000000000000ED
:4014000000000000000000000000000000000000000000000000000000000000000000000000000000000000000000000000000000000000000000000000000000000000AC
:40144000000000000000000000000000000000000000000000000000000000000000000000000000000000000000000000000000000000000000000000000000000000006C
:40148000000000000000000000000000000000000000000000000000000000000000000000000000000000000000000000000000000000000000000000000000000000002C
:020000040003F7
:0200000480007A
:400000000252004001640040026500405C08014037090140011701404418014032190140401A0140481B01400240014001410140014201400143014003480140074D0140C9
:40004000085001400151014061806440880F88388B72001302040615080A091C0A140B020D1410131110120C130C1509162017101A081E201F03210C2311240326142D1047
:400080003010311F3420360F3A803E114016410446CB47E0482C49FF4AFF4BFF4EF04F44500C5401580459045A045B045F0166C06A406B028203858087138806892C8A0165
:4000C0008B438E029B0C9E059F08A171A30EA606AA01AD71AF06B007B130B30FB5C0B922BA02BB08BF01C004C540C9FFCA07CBFFCC40CD20CEF0CF05D008D804D904DA04B5
:40010000DF01E040E1A8E240E3200090010203020418050209800C010D100E200F02120813081420162019021DC01E401F20205021102210230826022780284129422D0260
:400140002F02308032103401378838183C103F8040404440458048C04C0450045208562157405C225E48C07BC2F1C426CA99CCDCCE36D091D220D6F0E608011C02010301FA
:400180000507060107180B040D10120213031401151F19181F202001211C2302250826022B402C042D042F40300131603202331F340438023B083E143F014046410342024E
:4001C0004401450E47C0482149FF4AFF4BFF4C624DA04EF04F41500C54185604580459045A045B045F016640670269106A306B106D106E106F1288018C019801B401D80462
:40020000DF0101400308040107100A040D080E801482150416011A081E881F0427502CA22D203502368037283C893E104480451847484D044E0457015D016602670A8602B9
:400240008C808F1093029A019C02A202A614A701B721C033C232C4B0CAF0CCF0CEF0D0F0D220D680D8B001020301080409070A02150718061D011F06280629042B012C02A7
:400280002E05320134063707580459045F01801F81088220840C85048804890C8C018D109101943F9532970C983399209A0C9D309E23A003A332A402A53EA81CA90EAA2349
:4002C000AB30AC08AD0CAF32B010B330B40FB50EB62CB701BAA8BE01BF40D602D710D804D904DB04DF0101200401068107280A040D080E080F02100A1424160217121920C9
:400300001A101C091D081E48228023022550261829202C142D022E803008328034203520368638203A013E2A3F80441045085E406C186D406E046F087460762A77288543C6
:40034000860C870188848C028E018F4092089401954196149B109C809D229F20A202A466A518A690A708C0F2C2E2C4F3CAF4CCFACEF5D610E0023380CC10A780A780A78007
:400380008780A780E6101080710285028C80C408DC01E602000101010C010D01100111011C011D010003000080004080800080000000000000CBCB0000000000020000FBA0
:4003C000FB00000000000000000000000000000000000000000000000000000000000000000000000000000000000000000000000000000000000000000000000000000002
:4004000000000000000000000000000000000000000000000000000000000000000000000000000000000000000000000000000000000000000000000000000000000000BC
:40044000000000000000000000000000000000000000000000000000000000000000000000000000000000000000000000000000000000000000000000000000000000007C
:40048000000000000000000000000000000000000000000000000000000000000000000000000000000000000000000000000000000000000000000000000000000000003C
:4004C00000000000000000000000000000000000000000000000000000000000000000000000000000000000000000000000000000000000000000000000000000000000FC
:0200000490006A
:0400000000004005B7
:0200000490105A
:04000000BC90ACAF55
:0200000490303A
:020000002A01D3
:0200000490402A
:4000000000000000000000000000000000000000000000000000000000000000000000000000000000000000000000000000000000000000000000000000000000000000C0
:400040000000000000000000000000000000000000000000000000000000000000000000000000000000000000000000000000000000000000000000000000000000000080
:400080000000000000000000000000000000000000000000000000000000000000000000000000000000000000000000000000000000000000000000000000000000000040
:4000C0000000000000000000000000000000000000000000000000000000000000000000000000000000000000000000000000000000000000000000000000000000000000
:0200000490501A
:0C00000000012E16106900012E1E3A6A45
:00000001FF