:400000000080002011000000990D0000990D000008B5044B1A6803F53F5302331A6000F0C3FE00BFFA46004010B5054C237833B9044B13B10448AFF300800123237010BD6A
:400040004881FF1F0000000030110000084B10B51BB108490848AFF300800848036803B910BD074B002BFBD0BDE81040184700BF000000004C81FF1F30110000C880FF1F80
:400080000000000010B500F057FF044600F05AFF612C08D1554800F06BFF0120544B186000F0A0FF10BD642C09D1524800F060FF02224F4B1A60012000F094FF10BD732C16
:4000C00008D14D4800F054FF0020494B186000F089FF10BD712C06D1484800F049FF0222434B5A6010BD652C06D1454800F040FF01223F4B5A6010BD772C06D1414800F01E
:4001000037FF03223A4B5A6010BD7A2C06D13E4800F02EFF0122364B9A6010BD312C06D13A4800F025FF1222394B1A6010BD322C06D1384800F01CFF1022354B1A6010BD4B
:40014000332C06D1344800F013FF0E22304B1A6010BD342C06D1314800F00AFF0C222C4B1A6010BD352C06D12D4800F001FF0A22274B1A6010BD362C06D12A4800F0F8FE31
:400180000822234B1A6010BD372C06D1264800F0EFFE06221E4B1A6010BD382C06D1234800F0E6FE04221A4B1A6010BD392C06D11F4800F0DDFE0222154B1A6010BD302C22
:4001C00006D11C4800F0D4FE0122114B1A6010BD194800F0CDFE194800F0CAFE184800F0C7FE184800F0C4FE10BD00BF341100006481FF1F481100005C11000070110000C5
:400200008C110000A8110000C4110000F4110000CC80FF1F10120000301200004C1200006C12000088120000A4120000C0120000DC120000F8120000181300005413000038
:4002400088130000B413000008B562B60A4800F0BBFE00F047FE00F061FE084800F088FE002000F0BFFE00F041FC00F06FFC00F025FC00F053FCFAE785000000E413000000
:4002800038B50C46154601287CD101293AD100F0E5FD002000F0EEFD002000F0F7FD012000F000FE284600F0B7FE012000F0D6FD012000F0DFFD002000F0E8FD002000F030
:4002C000F1FD284600F0A8FE002000F0C7FD012000F0D0FD012000F0D9FD002000F0E2FD284600F099FE002000F0B8FD002000F0C1FD012000F0CAFD012000F0D3FD2846D5
:4003000000F08AFE022C40F0C181002000F0A6FD002000F0AFFD012000F0B8FD012000F0C1FD284600F078FE002000F097FD012000F0A0FD012000F0A9FD002000F0B2FD05
:40034000284600F069FE012000F088FD012000F091FD002000F09AFD002000F0A3FD284600F05AFE012000F079FD002000F082FD002000F08BFD012000F094FD284600F0C8
:400380004BFE38BD022840F0F680012977D1002000F064FD002000F06DFD002000F076FD012000F07FFD284600F036FE012000F055FD002000F05EFD002000F067FD0120CD
:4003C00000F070FD284600F027FE012000F046FD002000F04FFD002000F058FD002000F061FD284600F018FE012000F037FD012000F040FD002000F049FD002000F052FDDE
:40040000284600F009FE002000F028FD012000F031FD002000F03AFD002000F043FD284600F0FAFD002000F019FD012000F022FD012000F02BFD002000F034FD284600F0C9
:40044000EBFD002000F00AFD002000F013FD012000F01CFD002000F025FD284600F0DCFD002000F0FBFC002000F004FD012000F00DFD012000F016FD284600F0CDFD022C1D
:4004800040F00481002000F0E9FC002000F0F2FC002000F0FBFC012000F004FD284600F0BBFD002000F0DAFC002000F0E3FC012000F0ECFC012000F0F5FC284600F0ACFD8E
:4004C000002000F0CBFC002000F0D4FC012000F0DDFC002000F0E6FC284600F09DFD002000F0BCFC012000F0C5FC012000F0CEFC002000F0D7FC284600F08EFD002000F020
:40050000ADFC012000F0B6FC002000F0BFFC002000F0C8FC284600F07FFD012000F09EFC012000F0A7FC002000F0B0FC002000F0B9FC284600F070FD012000F08FFC00206F
:4005400000F098FC002000F0A1FC002000F0AAFC284600F061FD012000F080FC002000F089FC002000F092FC012000F09BFC284600F052FD38BD032840F0888001293BD135
:40058000002000F06BFC002000F074FC002000F07DFC012000F086FC284600F03DFD012000F05CFC002000F065FC002000F06EFC002000F077FC284600F02EFD002000F020
:4005C0004DFC012000F056FC002000F05FFC002000F068FC284600F01FFD002000F03EFC002000F047FC012000F050FC002000F059FC284600F010FD022C3BD1002000F0E2
:400600002DFC002000F036FC002000F03FFC012000F048FC284600F0FFFC002000F01EFC002000F027FC012000F030FC002000F039FC284600F0F0FC002000F00FFC0120F1
:4006400000F018FC002000F021FC002000F02AFC284600F0E1FC012000F000FC002000F009FC002000F012FC002000F01BFC284600F0D2FC002000F0F1FB002000F0FAFB44
:40068000002000F003FC002000F00CFC38BD00BF08B5002000F0E2FB002000F0EBFB002000F0F4FB002000F0FDFB08BD38B50C46154601287CD102293AD100F0B7FC0020EA
:4006C00000F0C0FC002000F0C9FC012000F0D2FC284600F0A1FC012000F0A8FC012000F0B1FC002000F0BAFC002000F0C3FC284600F092FC002000F099FC012000F0A2FC57
:40070000012000F0ABFC002000F0B4FC284600F083FC002000F08AFC002000F093FC012000F09CFC012000F0A5FC284600F074FC012C40F0B481002000F078FC002000F0E0
:4007400081FC012000F08AFC012000F093FC284600F062FC002000F069FC012000F072FC012000F07BFC002000F084FC284600F053FC012000F05AFC012000F063FC002059
:4007800000F06CFC002000F075FC284600F044FC012000F04BFC002000F054FC002000F05DFC012000F066FC284600F035FC38BD022840F0F680022977D1002000F036FC25
:4007C000002000F03FFC002000F048FC012000F051FC284600F020FC012000F027FC002000F030FC002000F039FC012000F042FC284600F011FC012000F018FC002000F0DE
:4008000021FC002000F02AFC002000F033FC284600F002FC012000F009FC012000F012FC002000F01BFC002000F024FC284600F0F3FB002000F0FAFB012000F003FC0020BD
:4008400000F00CFC002000F015FC284600F0E4FB002000F0EBFB012000F0F4FB012000F0FDFB002000F006FC284600F0D5FB002000F0DCFB002000F0E5FB012000F0EEFB12
:40088000002000F0F7FB284600F0C6FB002000F0CDFB002000F0D6FB012000F0DFFB012000F0E8FB284600F0B7FB012C40F0F780002000F0BBFB002000F0C4FB002000F0F6
:4008C000CDFB012000F0D6FB284600F0A5FB002000F0ACFB002000F0B5FB012000F0BEFB012000F0C7FB284600F096FB002000F09DFB002000F0A6FB012000F0AFFB002019
:4009000000F0B8FB284600F087FB002000F08EFB012000F097FB012000F0A0FB002000F0A9FB284600F078FB002000F07FFB012000F088FB002000F091FB002000F09AFB68
:40094000284600F069FB012000F070FB012000F079FB002000F082FB002000F08BFB284600F05AFB012000F061FB002000F06AFB002000F073FB002000F07CFB284600F099
:400980004BFB012000F052FB002000F05BFB002000F064FB012000F06DFB284600F03CFB38BD03287BD102293BD1002000F03EFB002000F047FB002000F050FB012000F006
:4009C00059FB284600F028FB012000F02FFB002000F038FB002000F041FB002000F04AFB284600F019FB002000F020FB012000F029FB002000F032FB002000F03BFB284640
:400A000000F00AFB002000F011FB002000F01AFB012000F023FB002000F02CFB284600F0FBFA012C3BD1002000F000FB002000F009FB002000F012FB012000F01BFB2846BD
:400A400000F0EAFA002000F0F1FA002000F0FAFA012000F003FB002000F00CFB284600F0DBFA002000F0E2FA012000F0EBFA002000F0F4FA002000F0FDFA284600F0CCFA3F
:400A8000012000F0D3FA002000F0DCFA002000F0E5FA002000F0EEFA284600F0BDFA38BD08B5002000F0C2FA002000F0CBFA002000F0D4FA002000F0DDFA08BD10B50024B0
:400AC00010E0FFF7E5FDFFF7EBFF40F26C7201210220FFF7D5FB40F26C7201210220FFF7E5FD0134B4F52A7FEBDB10BD10B5002410E0FFF7CDFDFFF7D3FF40F26C7202215A
:400B00000846FFF7BDFB40F26C7202210846FFF7CDFD0134B4F52A7FEBDB10BD10B5002410E0FFF7B5FDFFF7BBFF40F26C7201210220FFF7A5FB40F26C7202210846FFF7CC
:400B4000B5FD0134B4F54E7FEBDB10BD10B5002410E0FFF79DFDFFF7A3FF40F26C7202210846FFF78DFB40F26C7201210220FFF79DFD0134B4F55C7FEBDB10BDFEE700BFB1
:400B8000F0B40022174611E050F82760F3B226F0FF0608E001EB420511F812406D78A5550132013BDBB2002BF4D10137112FEBD9F0BC7047064B1B78DBB203F00701054AF7
:400BC00011701B09013213704422034B1A707047CF0100496E5800407658004008B50A46002100F09CFA08BD38B54FF49C72244B1A80182202331A70022203F27E231A707B
:400C000008224FF040231A70032103F5007319701C4B1B78DBB21C490B701C4B1A8041F25122023B1A80002419250CE0184B1B7803F0010343EA440404F003044FF4F07013
:400C400000F026FA013D0DB1032CEFD115B90320FFF794FF0F4B4FF480721A8007221A7000220D490A704820023108701A700222033B1A70094A137843F00103137038BD1B
:400C80008040004008010049A146004022420040254200400440004006400040A243004008B500F031FA08BD38B572B62B4A137843F00403137000240CE0294D63001919B7
:400CC0004A0011462A44084691882858FFF786FF0134E4B2072CF0D922494FF09040FFF74FFF214A137843F0020313701032137843F0020313701D4C237843F040032370B8
:400D0000A2F58632513A137843F0100313700A2217491848FFF7C4FF082217491748FFF7BFFF0A2216491748FFF7BAFF164A137843F008031370154D61232B70FFF754FF34
:400D400081232B700122124B1A70FFF733FF0E2221461048FFF7A4FF38BD00BFE8460040FC1300004800004803500140A0430040A8030048C0510040B4030048125100401C
:400D8000BC03004820510040224300400048004004000840B043004008B500F089F903680C2B00D1FEE7FEE708B5104E104D16E029686B68AC68002204E051F8040B43F8E4
:400DC000040B0432A242F8D1E868002203E0002143F8041B04328242F9D11035013E002EE6D100F06BF9FFF72FFAFEE7010000005414000008B5104A104B1A60104A136882
:400E000043F40073136000230AE0032B03D80D4A52F8231000E00C490C4A42F8231001332F2BF2D90A4B1A780A4B1A70074A0A4B1A60FFF739FF08BD0004FA050CED00E0A5
:400E400014ED00E000000000990D00000080FF1FBC760040C080FF1F08ED00E0044A137803F0EF03000100F0100018431070704720510040044A137803F0DF03400100F0C7
:400E8000200018431070704720510040044A137803F0BF03800100F0400018431070704720510040044A137803F07F03C001C0B218431070704700BF205100407222084BE3
:400EC0001A702022033B1A700622A3F25F131A70472210331A7000224F331A70704700BF8B65004010B500F0DBF804460A4A137843F020031370033A137843F01003137080
:400F0000A2F58072137843F01003137000F076F8204600F0C9F810BD9B65004008B5054B1B7823B9FFF7CAFF0122024B1A70FFF7D9FF08BD7281FF1F014B1878704700BF27
:400F400048650040024B1B780BB1024B187070477281FF1F48640040034B1B7813F0040FFAD1024B18707047686400404864004038B5074B1B782BB938BDFFF7EDFF013457
:400F8000A4B201E005460024285D0028F5D138BD7281FF1F014B1B681864704708ED00E04001C0B2014B1870704700BF00E400E00122014B1A60704700E100E00122014BAA
:400FC0001A60704780E100E010B50446FFF7F6FF2046FFF7DFFF0720FFF7E2FFFFF7E8FF10BD00BF044A137803F0FD03400000F0020018431070704720510040054A1378C9
:4010000043F0010313701032137843F001031370704700BFA243004008B5034B1B7A00FB03F000F035F808BDD080FF1F044A137803F0BF03800100F0400018431070704725
:4010400010510040044A137803F0FE0300F0010018431070704700BF20510040044A137803F0F703C00000F0080018431070704720510040044A137803F07F03C001C0B2CD
:4010800018431070704700BF10510040000000000230800803D000BF01380046FCD17047EFF3108072B6704780F31088704700BF014B1868704700BF4081FF1F0E4B70B57E
:4010C0001E460E4C0025E41AA410A54204D056F8253098470135F8E700F0AAF9084B094C1E46E41AA4100025A54204D056F8253098470135F8E770BD3C1400003C14000074
:401100003C1400004414000010B5431E0A44914204D011F8014B03F8014FF8E710BD03460244934202D003F8011BFAE770470000000000000A4D6F746F72204672656D6195
:4011400064200D200A0000000A4D6F746F722054696C62616765200D200A00000A4D6F746F722053746F70706574200D200A00000A4D6F746F72206D6F64653A2048616C9A
:4011800066206D6F6465200D200A00000A4D6F746F72206D6F64653A2046756C6C206D6F6465200D200A00000A4D6F746F72206D6F64653A2077617665206D6F6465200DE5
:4011C000200A00000A546167657220656E20656E6B656C74206F6D67616E672C20766564206E61657374652073746172742E200D200A00000A4D6F746F7220686173746947
:40120000676865643A20536E65676C200D200A000A4D6F746F72206861737469676865643A20536B696C6470616465200D200A000A4D6F746F722068617374696768656452
:401240003A204D7573200D200A0000000A4D6F746F72206861737469676865643A20456C657068616E74200D200A00000A4D6F746F72206861737469676865643A204861CB
:401280007265200D200A00000A4D6F746F72206861737469676865643A2048756E64200D200A00000A4D6F746F72206861737469676865643A20486A6F7274200D200A0030
:4012C0000A4D6F746F72206861737469676865643A2048657374200D200A00000A4D6F746F72206861737469676865643A205469676572200D200A000A4D6F746F72206882
:4013000061737469676865643A204C656F70617264200D200A0000000A200A200A48454C50313A204475206B616E206272756720312074696C2039206F67203020666F7237
:401340002068617374696768656465722E200D200A00000048454C50323A2051206F672045206F67205720666F722068616C662C2066756C6C206F672077617665206D6F8C
:4013800064652E200D200A0048454C50333A207A20666F72206174207461676520656E20656E6B656C206F6D67616E672E200D200A00000048454C50343A2041206F672044
:4013C0004420657220666F72206672656D6164206F672062616B676561722E200D200A200A200A004170706C69636174696F6E20737461727465640D0A00000000510040CD
:401400001000305100404000F0510040100000000140001000140140000800400140000A004C0140000200500140200043000000F8B500BFF8BC08BC9E4670474D00000082
:40144000F50D0000F8B500BFF8BC08BC9E4670472900000068140000C880FF1F80000000300000000000000000000000010000000000E02EC05D00001800000000366E0147
:4014800000000000000000000000000000000000000000000000000000000000000000002C14000000000000000000000000000000000000000000000000000000000000EC
:4014C0000000000000000000000000000000000000000000000000000000000000000000E080FF1F000000000000000000000000000000000000000000000000000000006E
:4015000000000000000000000000000000000000000000000000000000000000000000000000000000000000000000000000000000000000000000000000000000000000AB
:40154000000000000000000000000000000000000000000000000000000000000000000000000000000000000000000000000000000000000000000000000000000000006B
:40158000000000000000000000000000000000000000000000000000000000000000000000000000000000000000000000000000000000000000000000000000000000002B
:4015C00000000000000000000000000000000000000000000000000000000000000000000000000000000000000000000000000000000000000000000000000000000000EB
:020000040003F7
:0200000480007A
:400000000252004001640040026500405C08014037090140011701404418014032190140401A0140481B01400240014001410140014201400143014003480140074D0140C9
:40004000085001400151014061806440880F88388B72001302040615080A091C0A140B020D1410131110120C130C1509162017101A081E201F03210C2311240326142D1047
:400080003010311F3420360F3A803E114016410446CB47E0482C49FF4AFF4BFF4EF04F44500C5401580459045A045B045F0166C06A406B028203858087138806892C8A0165
:4000C0008B438E029B0C9E059F08A171A30EA606AA01AD71AF06B007B130B30FB5C0B922BA02BB08BF01C004C540C9FFCA07CBFFCC40CD20CEF0CF05D008D804D904DA04B5
:40010000DF01E040E1A8E240E3200090010203020418050209800C010D100E200F02120813081420162019021DC01E401F20205021102210230826022780284129422D0260
:400140002F02308032103401378838183C103F8040404440458048C04C0450045208562157405C225E48C07BC2F1C426CA99CCDCCE36D091D220D6F0E608011C02010301FA
:400180000507060107180B040D10120213031401151F19181F202001211C2302250826022B402C042D042F40300131603202331F340438023B083E143F014046410342024E
:4001C0004401450E47C0482149FF4AFF4BFF4C624DA04EF04F41500C54185604580459045A045B045F016640670269106A306B106D106E106F1288018C019801B401D80462
:40020000DF0101400308040107100A040D080E801482150416011A081E881F0427502CA22D203502368037283C893E104480451847484D044E0457015D016602670A8602B9
:400240008C808F1093029A019C02A202A614A701B721C033C232C4B0CAF0CCF0CEF0D0F0D220D680D8B001020301080409070A02150718061D011F06280629042B012C02A7
:400280002E05320134063707580459045F01801F81088220840C85048804890C8C018D109101943F9532970C983399209A0C9D309E23A003A332A402A53EA81CA90EAA2349
:4002C000AB30AC08AD0CAF32B010B330B40FB50EB62CB701BAA8BE01BF40D602D710D804D904DB04DF0101200401068107280A040D080E080F02100A1424160217121920C9
:400300001A101C091D081E48228023022550261829202C142D022E803008328034203520368638203A013E2A3F80441045085E406C186D406E046F087460762A77288543C6
:40034000860C870188848C028E018F4092089401954196149B109C809D229F20A202A466A518A690A708C0F2C2E2C4F3CAF4CCFACEF5D610E0023380CC10A780A780A78007
:400380008780A780E6101080710285028C80C408DC01E602000101010C010D01100111011C011D010003000080004080800080000000000000CBCB0000000000020000FBA0
:4003C000FB00000000000000000000000000000000000000000000000000000000000000000000000000000000000000000000000000000000000000000000000000000002
:4004000000000000000000000000000000000000000000000000000000000000000000000000000000000000000000000000000000000000000000000000000000000000BC
:40044000000000000000000000000000000000000000000000000000000000000000000000000000000000000000000000000000000000000000000000000000000000007C
:40048000000000000000000000000000000000000000000000000000000000000000000000000000000000000000000000000000000000000000000000000000000000003C
:4004C00000000000000000000000000000000000000000000000000000000000000000000000000000000000000000000000000000000000000000000000000000000000FC
:0200000490006A
:0400000000004005B7
:0200000490105A
:04000000BC90ACAF55
:0200000490303A
:02000000ACB79B
:0200000490402A
:4000000000000000000000000000000000000000000000000000000000000000000000000000000000000000000000000000000000000000000000000000000000000000C0
:400040000000000000000000000000000000000000000000000000000000000000000000000000000000000000000000000000000000000000000000000000000000000080
:400080000000000000000000000000000000000000000000000000000000000000000000000000000000000000000000000000000000000000000000000000000000000040
:4000C0000000000000000000000000000000000000000000000000000000000000000000000000000000000000000000000000000000000000000000000000000000000000
:0200000490501A
:0C00000000012E16106900012E1EBD200C
:00000001FF