:400000000080002011000000FD090000FD09000008B5044B1A6803F53F5302331A6000F0F5FC00BFFA46004010B5054C237833B9044B13B10448AFF300800123237010BD7A
:400040004881FF1F00000000480D0000084B10B51BB108490848AFF300800848036803B910BD074B002BFBD0BDE81040184700BF000000004C81FF1F480D0000C880FF1F58
:400080000000000010B500F089FD044600F08CFD612C08D1554800F09DFD0120544B186000F0D2FD10BD642C09D1524800F092FD02224F4B1A60012000F0C6FD10BD732CF6
:4000C00008D14D4800F086FD0020494B186000F0BBFD10BD712C06D1484800F07BFD0222474B1A6010BD652C06D1464800F072FD0122434B1A6010BD772C06D1424800F0D4
:4001000069FD03223E4B1A6010BD7A2C06D13F4800F060FD0122364B5A6010BD312C06D13B4800F057FD1222314B9A6010BD322C06D1384800F04EFD10222D4B9A6010BD15
:40014000332C06D1344800F045FD0E22284B9A6010BD342C06D1314800F03CFD0C22244B9A6010BD352C06D12D4800F033FD0A221F4B9A6010BD362C06D12A4800F02AFD08
:4001800008221B4B9A6010BD372C06D1264800F021FD0622164B9A6010BD382C06D1234800F018FD0422124B9A6010BD392C06D11F4800F00FFD02220D4B9A6010BD302CAF
:4001C00006D11C4800F006FD0122094B9A6010BD194800F0FFFC194800F0FCFC184800F0F9FC184800F0F6FC10BD00BF4C0D00006481FF1F600D0000740D0000880D00000C
:40020000CC80FF1FA40D0000C00D0000DC0D00000C0E0000340E00005C0E0000840E0000B80E0000D80E0000F40E00001C0F0000440F0000680F0000940F0000D00F000070
:40024000041000003010000008B562B6B64800F0EDFC00F095FCB54800F0BCFC002000F0F3FC002000F02CFC002000F035FC002000F03EFC002000F047FCAD4B1B68012B9C
:4002800040F0B68048E0012000F01AFC002000F023FC002000F02CFC012000F035FCA54CA06800F0EBFC012000F00AFC012000F013FC002000F01CFC002000F025FCA06878
:4002C00000F0DCFC002000F0FBFB012000F004FC012000F00DFC002000F016FCA06800F0CDFC002000F0ECFB002000F0F5FB012000F0FEFB012000F007FCA06800F0BEFC5B
:40030000207BB0FA80F04009207300F09DFC6368012B01D100222260864B1B68012BB2D0002000F0CDFB002000F0D6FB002000F0DFFB002000F0E8FB49E0002000F0C0FBAA
:40034000002000F0C9FB012000F0D2FB012000F0DBFB784CA06800F091FC002000F0B0FB012000F0B9FB012000F0C2FB002000F0CBFBA06800F082FC012000F0A1FB012033
:4003800000F0AAFB002000F0B3FB002000F0BCFBA06800F073FC012000F092FB002000F09BFB002000F0A4FB012000F0ADFBA06800F064FC207BB0FA80F04009207300F037
:4003C00043FC6368012B02D1002222606260594B1B68022BB1D0002000F072FB002000F07BFB002000F084FB002000F08DFB38E7022B40F0398185E0002000F061FB002068
:4004000000F06AFB002000F073FB012000F07CFB484CA06800F032FC012000F051FB002000F05AFB002000F063FB012000F06CFBA06800F023FC012000F042FB002000F08A
:400440004BFB002000F054FB002000F05DFBA06800F014FC012000F033FB012000F03CFB002000F045FB002000F04EFBA06800F005FC002000F024FB012000F02DFB0020B6
:4004800000F036FB002000F03FFBA06800F0F6FB002000F015FB012000F01EFB012000F027FB002000F030FBA06800F0E7FB002000F006FB002000F00FFB012000F018FB07
:4004C000002000F021FBA06800F0D8FB002000F0F7FA002000F000FB012000F009FB012000F012FBA06800F0C9FB207BB0FA80F04009207300F0A8FB6368012B02D10022FA
:40050000226062600B4B1B68012B3FF475AF002000F0D6FA002000F0DFFA002000F0E8FA002000F0F1FA8DE08500000060100000CC80FF1F6481FF1F002000F0C1FA0020AB
:4005400000F0CAFA002000F0D3FA012000F0DCFAA24CA06800F092FB002000F0B1FA002000F0BAFA012000F0C3FA012000F0CCFAA06800F083FB002000F0A2FA002000F03A
:40058000ABFA012000F0B4FA002000F0BDFAA06800F074FB002000F093FA012000F09CFA012000F0A5FA002000F0AEFAA06800F065FB002000F084FA012000F08DFA00205F
:4005C00000F096FA002000F09FFAA06800F056FB012000F075FA012000F07EFA002000F087FA002000F090FAA06800F047FB012000F066FA002000F06FFA002000F078FAAF
:40060000002000F081FAA06800F038FB012000F057FA002000F060FA002000F069FA012000F072FAA06800F029FB207BB0FA80F04009207300F008FB6368012B02D10022BC
:4006400022606260654B1B68022B3FF475AF002000F036FA002000F03FFA002000F048FA002000F051FAFCE5032B7FF4FAAD49E0002000F025FA002000F02EFA002000F080
:4006800037FA012000F040FA544CA06800F0F6FA012000F015FA002000F01EFA002000F027FA002000F030FAA06800F0E7FA002000F006FA012000F00FFA002000F018FA5E
:4006C000002000F021FAA06800F0D8FA002000F0F7F9002000F000FA012000F009FA002000F012FAA06800F0C9FA207BB0FA80F04009207300F0A8FA6368012B02D1002201
:4007000022606260354B1B68012BB1D0002000F0D7F9002000F0E0F9002000F0E9F9002000F0F2F949E0002000F0CAF9002000F0D3F9002000F0DCF9012000F0E5F9274CF0
:40074000A06800F09BFA002000F0BAF9002000F0C3F9012000F0CCF9002000F0D5F9A06800F08CFA002000F0ABF9012000F0B4F9002000F0BDF9002000F0C6F9A06800F02C
:400780007DFA012000F09CF9002000F0A5F9002000F0AEF9002000F0B7F9A06800F06EFA207BB0FA80F04009207300F04DFA6368012B02D1002222606260084B1B68022B9C
:4007C000B1D0002000F07CF9002000F085F9002000F08EF9002000F097F942E56481FF1FFEE700BFF0B40022174611E050F82760F3B226F0FF0608E001EB420511F8124047
:400800006D78A5550132013BDBB2002BF4D10137112FEBD9F0BC7047064B1B78DBB203F00701054A11701B09013213704422034B1A707047CF0100496E5800407658004016
:4008400008B50A46002100F076FA08BD38B54FF49C72244B1A80182202331A70022203F27E231A7008224FF040231A70032103F5007319701C4B1B78DBB21C490B701C4B65
:400880001A8041F25122023B1A80002419250CE0184B1B7803F0010343EA440404F003044FF4F07000F000FA013D0DB1032CEFD115B90320FFF794FF0F4B4FF480721A805B
:4008C00007221A7000220D490A704820023108701A700222033B1A70094A137843F00103137038BD8040004008010049A1460040224200402542004004400040064000406F
:40090000A243004008B500F00BFA08BD38B572B62B4A137843F00403137000240CE0294D630019194A0011462A44084691882858FFF786FF0134E4B2072CF0D922494FF04C
:400940009040FFF74FFF214A137843F0020313701032137843F0020313701D4C237843F040032370A2F58632513A137843F0100313700A2217491848FFF7C4FF08221749C0
:400980001748FFF7BFFF0A2216491748FFF7BAFF164A137843F008031370154D61232B70FFF754FF81232B700122124B1A70FFF733FF0E2221461048FFF7A4FF38BD00BF68
:4009C000E8460040781000004800004803500140A0430040A8030048C0510040B403004812510040BC03004820510040224300400048004004000840B043004008B500F0C3
:400A000063F903680C2B00D1FEE7FEE708B5104E104D16E029686B68AC68002204E051F8040B43F8040B0432A242F8D1E868002203E0002143F8041B04328242F9D11035D3
:400A4000013E002EE6D100F045F9FFF7FDFBFEE701000000D010000008B5104A104B1A60104A136843F40073136000230AE0032B03D80D4A52F8231000E00C490C4A42F8E3
:400A8000231001332F2BF2D90A4B1A780A4B1A70074A0A4B1A60FFF739FF08BD0004FA050CED00E014ED00E000000000FD0900000080FF1FBC760040C080FF1F08ED00E0CB
:400AC000044A137803F0EF03000100F0100018431070704720510040044A137803F0DF03400100F0200018431070704720510040044A137803F0BF03800100F04000184318
:400B00001070704720510040044A137803F07F03C001C0B218431070704700BF205100407222084B1A702022033B1A700622A3F25F131A70472210331A7000224F331A70B2
:400B4000704700BF8B65004010B500F0B5F804460A4A137843F020031370033A137843F010031370A2F58072137843F01003137000F076F8204600F0A3F810BD9B650040A1
:400B800008B5054B1B7823B9FFF7CAFF0122024B1A70FFF7D9FF08BD7181FF1F014B1878704700BF48650040024B1B780BB1024B187070477181FF1F48640040034B1B7819
:400BC00013F0040FFAD1024B18707047686400404864004038B5074B1B782BB938BDFFF7EDFF0134A4B201E005460024285D0028F5D138BD7181FF1F014B1B6818647047AE
:400C000008ED00E04001C0B2014B1870704700BF00E400E00122014B1A60704700E100E00122014B1A60704780E100E010B50446FFF7F6FF2046FFF7DFFF0720FFF7E2FFAA
:400C4000FFF7E8FF10BD00BF044A137803F0FD03400000F0020018431070704720510040054A137843F0010313701032137843F001031370704700BFA243004010B5044605
:400C800005E0084B186800F00FF8A4F50044B4F5004FF6D8034B586800FB04F000F004F810BD00BFD080FF1F0230800803D000BF01380046FCD17047EFF3108072B670475F
:400CC00080F31088704700BF014B1868704700BF4081FF1F0E4B70B51E460E4C0025E41AA410A54204D056F8253098470135F8E700F0DCF9084B094C1E46E41AA410002545
:400D0000A54204D056F8253098470135F8E770BDB8100000B8100000B8100000C010000010B5431E0A44914204D011F8014B03F8014FF8E710BD03460244934202D003F874
:400D4000011BFAE770470000000000000A4D6F746F72204672656D6164200D200A0000000A4D6F746F722054696C62616765200D200A00000A4D6F746F722053746F707043
:400D80006574200D200A00000A4D6F746F72206D6F64653A2048616C66206D6F6465200D200A00000A4D6F746F72206D6F64653A2046756C6C206D6F6465200D200A000049
:400DC0000A4D6F746F72206D6F64653A2077617665206D6F6465200D200A00000A546167657220656E20656E6B656C74206F6D67616E672C20766564206E61657374652073
:400E000073746172742E200D200A00000A4D6F746F72206861737469676865643A2042726F20646572207465616E6B6572200D200A0000000A4D6F746F7220686173746986
:400E4000676865643A20536C657070696E6720536E6F726C616B73200D200A000A4D6F746F72206861737469676865643A20416E6472656173206F6D206D6F7267656E20B2
:400E80000D200A000A4D6F746F72206861737469676865643A20566F72657320666F726C656173657220756E6465727669736E696E67200D200A00000A4D6F746F7220688D
:400EC00061737469676865643A204E6F726D616C200D200A000000000A4D6F746F72206861737469676865643A204C4F4C200D200A0000000A4D6F746F72206861737469B7
:400F0000676865643A204341505441494E20524F454456494E200D200A0000000A4D6F746F72206861737469676865643A204B617370657220706161207370656564200DD5
:400F4000200A00000A4D6F746F72206861737469676865643A2046756C6C20676164616669200D200A0000000A4D6F746F72206861737469676865643A204E69636B6C6103
:400F800073207061612054696E646572200D200A000000000A200A200A48454C50313A204475206B616E206272756720312074696C2039206F67203020666F72206861737E
:400FC00074696768656465722E200D200A00000048454C50323A2051206F672045206F67205720666F722068616C662C2066756C6C206F672077617665206D6F64652E2055
:401000000D200A0048454C50333A207A20666F72206174207461676520656E20656E6B656C206F6D67616E672E200D200A00000048454C50343A2041206F672044206572A3
:4010400020666F72206672656D6164206F672062616B676561722E200D200A200A200A004170706C69636174696F6E20737461727465640D0A0000000051004010003051FA
:4010800000404000F0510040100000000140001000140140000800400140000A004C0140000200500140200043000000F8B500BFF8BC08BC9E4670474D000000590A000034
:4010C000F8B500BFF8BC08BC9E46704729000000E0100000C880FF1F800000003000000000000000010000000000E02EC05D00001800000000366E01000000000000000059
:40110000000000000000000000000000000000000000000000000000A8100000000000000000000000000000000000000000000000000000000000000000000000000000F7
:40114000000000000000000000000000000000000000000000000000E080FF1F000000000000000000000000000000000000000000000000000000000000000000000000F1
:40118000000000000000000000000000000000000000000000000000000000000000000000000000000000000000000000000000000000000000000000000000000000002F
:4011C00000000000000000000000000000000000000000000000000000000000000000000000000000000000000000000000000000000000000000000000000000000000EF
:4012000000000000000000000000000000000000000000000000000000000000000000000000000000000000000000000000000000000000000000000000000000000000AE
:40124000000000000000000000000000000000000000000000000000000000000000000000000000000000000000000000000000000000000000000000000000000000006E
:020000040003F7
:0200000480007A
:400000000252004001640040026500405C08014037090140011701404418014032190140401A0140481B01400240014001410140014201400143014003480140074D0140C9
:40004000085001400151014061806440880F88388B72001302040615080A091C0A140B020D1410131110120C130C1509162017101A081E201F03210C2311240326142D1047
:400080003010311F3420360F3A803E114016410446CB47E0482C49FF4AFF4BFF4EF04F44500C5401580459045A045B045F0166C06A406B028203858087138806892C8A0165
:4000C0008B438E029B0C9E059F08A171A30EA606AA01AD71AF06B007B130B30FB5C0B922BA02BB08BF01C004C540C9FFCA07CBFFCC40CD20CEF0CF05D008D804D904DA04B5
:40010000DF01E040E1A8E240E3200090010203020418050209800C010D100E200F02120813081420162019021DC01E401F20205021102210230826022780284129422D0260
:400140002F02308032103401378838183C103F8040404440458048C04C0450045208562157405C225E48C07BC2F1C426CA99CCDCCE36D091D220D6F0E608011C02010301FA
:400180000507060107180B040D10120213031401151F19181F202001211C2302250826022B402C042D042F40300131603202331F340438023B083E143F014046410342024E
:4001C0004401450E47C0482149FF4AFF4BFF4C624DA04EF04F41500C54185604580459045A045B045F016640670269106A306B106D106E106F1288018C019801B401D80462
:40020000DF0101400308040107100A040D080E801482150416011A081E881F0427502CA22D203502368037283C893E104480451847484D044E0457015D016602670A8602B9
:400240008C808F1093029A019C02A202A614A701B721C033C232C4B0CAF0CCF0CEF0D0F0D220D680D8B001020301080409070A02150718061D011F06280629042B012C02A7
:400280002E05320134063707580459045F01801F81088220840C85048804890C8C018D109101943F9532970C983399209A0C9D309E23A003A332A402A53EA81CA90EAA2349
:4002C000AB30AC08AD0CAF32B010B330B40FB50EB62CB701BAA8BE01BF40D602D710D804D904DB04DF0101200401068107280A040D080E080F02100A1424160217121920C9
:400300001A101C091D081E48228023022550261829202C142D022E803008328034203520368638203A013E2A3F80441045085E406C186D406E046F087460762A77288543C6
:40034000860C870188848C028E018F4092089401954196149B109C809D229F20A202A466A518A690A708C0F2C2E2C4F3CAF4CCFACEF5D610E0023380CC10A780A780A78007
:400380008780A780E6101080710285028C80C408DC01E602000101010C010D01100111011C011D0100030000800040808000800000000000000B0B0000000000020000F229
:4003C000F20000000000000000000000000000000000000000000000000000000000000000000000000000000000000000000000000000000000000000000000000000000B
:4004000000000000000000000000000000000000000000000000000000000000000000000000000000000000000000000000000000000000000000000000000000000000BC
:40044000000000000000000000000000000000000000000000000000000000000000000000000000000000000000000000000000000000000000000000000000000000007C
:40048000000000000000000000000000000000000000000000000000000000000000000000000000000000000000000000000000000000000000000000000000000000003C
:4004C00000000000000000000000000000000000000000000000000000000000000000000000000000000000000000000000000000000000000000000000000000000000FC
:0200000490006A
:0400000000004005B7
:0200000490105A
:04000000BC90ACAF55
:0200000490303A
:0200000022F4E8
:0200000490402A
:4000000000000000000000000000000000000000000000000000000000000000000000000000000000000000000000000000000000000000000000000000000000000000C0
:400040000000000000000000000000000000000000000000000000000000000000000000000000000000000000000000000000000000000000000000000000000000000080
:400080000000000000000000000000000000000000000000000000000000000000000000000000000000000000000000000000000000000000000000000000000000000040
:4000C0000000000000000000000000000000000000000000000000000000000000000000000000000000000000000000000000000000000000000000000000000000000000
:0200000490501A
:0C00000000012E16106900012E1D335D5A
:00000001FF